:100000000C9421070C9449070C9449070C949122F5
:100010000C9491220C9491220C9449070C94BE20CC
:100020000C9449070C9409230C9449070C94B223AF
:100030000C9449070C9449070C9449070C94490700
:100040000C9474200C9449070C9440210C941A21B0
:100050000C9449070C9449070C9449070C944907E0
:100060000C9472210C94490708000000BE922449A8
:10007000123EABAAAA2ABECDCCCC4C3E00000080DA
:10008000BEABAAAAAA3E00000000BF000000803F4D
:100090000000000000084178D3BB4387D1133D190D
:1000A0000E3CC3BD4282AD2B3E68EC8276BED98F3A
:1000B000E1A93E4C80EFFFBE01C4FF7F3F0000007E
:1000C00000004321004100830006010B0217042DAC
:1000D000085A1066230045008B0015012A025504BA
:1000E000A9085311A6230045008B0015012A0255CB
:1000F00004A90853114425004900930026014B022E
:1001000097042D095B126727004E009C0037016E93
:1001100002DD04B9097213A727004E009C003701C5
:100120006E02DD04B90972134529005200A5004A88
:1001300001930227054D0A0000462C005700AF002E
:100140005D01BA027505EA0A0000692E005D00B97A
:10015000007201E402C805900B0000A92E005D00AA
:10016000B9007201E402C805900B0000473100623B
:1001700000C400880110032006400C00006A34000F
:100180006800D0009F013F037D06FA0C0000A334F5
:10019000006800D0009F013F037D06FA0C0000417B
:1001A00037006E00DC00B8017003E006C00D0000EF
:1001B000643A007500E900D201A4034907910E00DA
:1001C00000A43A007500E900D201A4034907910E8A
:1001D0000000423E007B00F700EE01DC03B8076F31
:1001E0000F000000003041000030410000304100AD
:1001F000003041000030410000304133338341CDB5
:10020000CC80419A996941CDCC5C419A9951410089
:100210000030419A9979419A9971419A99494100DE
:1002200000404166662E410000284100007841668A
:100230006666419A994941CDCC3C416666264100AB
:10024000002041CDCC6C41CDCC5C4100004041CD83
:10025000CC2C41CDCC1C41CDCC04410000684133B5
:10026000335B410000384133332341CDCC1441CDC1
:10027000CC0441CDCC6441CDCC544100003841CDBB
:10028000CC24410000184133330B4133336341CD5B
:10029000CC544166663641666626419A99114133CF
:1002A000330B419A9961419A99514166662E4100FA
:1002B000002041000010413333F340000060419AB8
:1002C000995141CDCC2C4166661E4166660E41CDEA
:1002D000CCFC4066665E4166664E410000304100DF
:1002E000002041000010419A99F940610000042A61
:1002F0002A1E0000620000FE12120C0000630000C3
:100300000C12121200006400000C1212FE000065B4
:1003100000001C2A2A180000660000103E50500001
:10032000006700000815151E0000680000FE101090
:100330000E0000690000002E000000006A000002AC
:10034000012E0000006B0000FE08141200006C007B
:100350000000FE020000006D00001E100E100E00D6
:100360006E00001E10100E00006F00000C12120C28
:1003700000007000001F12120C00007100000C122F
:10038000121F00007200001E081010000073000011
:10039000122A2A240000740000103E12000000758A
:1003A00000001C02021E000076001804020418005F
:1003B0000077001C020C021C0000780000120C0CDC
:1003C0001200007900001805051E00007A000012D6
:1003D000161A1200004100007E88887E000042004C
:1003E00000FE92926C00004300007C828244000078
:1003F000440000FE82827C0000450000FE92928252
:100400000000460000FE90908000004700007C82C3
:10041000925C0000480000FE1010FE000049000041
:1004200082FE820000004A00000C0202FC00004B29
:1004300000FE1028448200004C0000FE0202020070
:10044000004D00FE403040FE00004E00FE403008EF
:1004500004FE004F007C8282827C0000500000FE7F
:10046000909060000051007C828A847A00005200E3
:1004700000FE98946200005300006492924C0000C9
:1004800054008080FE80800000550000FC0202FCC9
:1004900000005600F8040204F800005700FE04387B
:1004A00004FE00005800824438384482005900C0DD
:1004B000201E20C000005A00868A92A2C2000000BE
:1004C0004448506000FE10007C04040400FE10004C
:1004D0007C44444400FE10005C54547400FE100040
:1004E0007C44447C00FE10007C14147C00FE100848
:1004F0001060100800FE10003844443800FE10441C
:100500004870484400FE1024A8B0A82400FE100043
:100510005458506000FE10007C54545400FE1044A7
:100520007C447C4400FE100024AAAA2400FE100093
:10053000000000000000000008080808080800008B
:100540000414141414040002222A2A2A220200008D
:100550007E4A727A4A7E000042527E525E4200001B
:100560002428602824000000107E121212140000BB
:100570000478007804000000227C203E0204000081
:1005800008083E08080000005F5575555F00000030
:1005900028283F4808000000444870525E40001080
:1005A0003E40262A322600020000000024002700D8
:1005B0002A000000000800020100000304070000F8
:1005C00000000000000000007C82827C000000002F
:1005D00042FE020000000000468A92620000000015
:1005E0004492926C0000000C14247E040000000071
:1005F000F292928C000000007C92924C000000006D
:10060000C08E90E0000000006C92926C0000000030
:100610006492927C000000387C3E3E7C38000018DA
:100620003C1E3C1800003C42A98585A9423C0006BE
:10063000FEA0A0A6FE000000067E201800000B020F
:1006400000000041B80100000041B80100008040F6
:10065000D201000000418801000000418801000033
:1006600080405D0100000041880100000041B801A8
:1006700000000041D201000000410B0200000041D7
:100680000B02000000410B02000080400B02000042
:100690000041B80100000041B80100000041B8016C
:1006A00000000041D201000000418801000000412B
:1006B0008801000080405D0100000041B801000099
:1006C00000410B02000000410B0200000041B80194
:1006D00000000041B80100000041B8010000804066
:1006E00088010000004188010000004188010000ED
:1006F0000041880100000041880100000041B8016C
:1007000000000041D20100008040B801000000411B
:10071000B80100000041B80100000041B80100002C
:100720000041B80100000041D201000000410B026D
:10073000000080400B0200000041B80100000041B1
:10074000B80100008040D201000000418801000093
:1007500000418801000080405D0100000041B801B7
:10076000000000410B0200000041B8010000004100
:10077000B80100000041B80100000041B8010000CC
:1007800080400601000040402601000000414A016F
:10079000000080400601000080404A0100008040C7
:1007A0000601000080404A010000004026010000D0
:1007B00040404A01000000415D01000000415D0130
:1007C000000000414A0100000041260100000041F4
:1007D0005D010000C03F0000000080404A010000B1
:1007E00040405D01000000418801000080404A0156
:1007F000000080408801000080404A0100008040E5
:100800008801000080400000000080405D01000081
:100810004040880100000041B80100000041B801DB
:10082000000000418801000000415D01000000411E
:10083000B8010000C03F00000000804088010000B7
:1008400040400601000000412601000000414A012D
:10085000000000415D0100000041880100000041EE
:10086000B8010000C03F000000008040B801000057
:1008700040402601000000414A0100000041720191
:1008800000000041880100000041B8010000004163
:10089000EE010000C03F000000008040EE010000BB
:1008A00040404A01000000417201000000419F01E8
:1008B00000000041B80100000041EE0100000041CD
:1008C0000B020000C03FEE0100000041D201000019
:1008D0000041B801000080405D0100008040EE0151
:1008E000000080408801000080400B020000C03FF3
:1008F00000000000804000000000004106010000F0
:1009000000412601000000414A01000000415D0154
:1009100000000041880100000041B80100000041D2
:10092000EE01000000410B02000080408801000041
:1009300080400B02000000407201000080408801EE
:10094000000080407201000080404A0100008040A9
:100950002601000080404A0100008040260100007E
:100960000040000000008040000000000040260120
:100970000000804088010000804088010000804025
:10098000880100008040B80100008040EE010000B6
:100990008040B801000000400000000080400000DE
:1009A000000000404A0100008040720100008040C9
:1009B0004A01000080404A010000804072010000AE
:1009C00080404A0100008040880100000040000093
:1009D0000000804000000000004072010000004064
:1009E0007201000080408801000080407201000018
:1009F0008040880100008040B801000000400000F5
:100A000000008040000000000040EE010000804037
:100A1000EE0100008040EE0100008040EE01000089
:100A20008040D20100008040EE01000080404B0277
:100A30000000004000000000804000000000004076
:100A4000B80100008040B80100008040B8010000FB
:100A50008040B801000080409F0100008040B80144
:100A6000000080404B020000004000000000804079
:100A7000000000000040880100008040B801000034
:100A800080408801000080407201000080408801A1
:100A900000008040B801000080404A010000004092
:100AA00000000000804000000000004072010000D3
:100AB00080408801000080407201000080404A01AF
:100AC000000080402601000080404A010000804074
:100AD00026010000004000000000804000000000EF
:100AE0008040000000008040720100008040B8019A
:100AF0000000C03FB801000000419F01000000411C
:100B000088010000004172010000004188010000DE
:100B100000414A01000000412601000000400000A1
:100B2000000080400000000080400601000080407E
:100B3000060100000041060100000041060100001E
:100B400080400601000080404A010000804088018A
:100B5000000000418801000000414A01000080407F
:100B6000060100008040880100000041880100006B
:100B700000414A01000080408801000000418801D6
:100B8000000000414A010000804006010000804052
:100B900006010000804006010000004088010000BE
:100BA00080408801000080404A010000804006012A
:100BB00000008040880100008040880100008040E3
:100BC000880100000040880100008040880100008A
:100BD00080404A01000080400601000080408801FA
:100BE0000000804088010000804088010000004033
:100BF0008801000080408801000080404A01000018
:100C0000804006010000804088010000004188010A
:100C100000000041880100000041B80100000041CF
:100C20008801000000400B020000804088010000A5
:100C300080400B02000080408801000080404A0193
:100C400000008040260100008040060100000040B6
:100C5000060100008040060100008040880100007D
:100C60008040880100008040B80100008040B80149
:100C7000000080408801000000405D0100008040CD
:100C80005D01000080404A01000080404A010000F0
:100C900080402601000080402601000080400601BF
:100CA0000000004088010000804088010000804072
:100CB0005D01000080405D01000080404A010000AD
:100CC00080404A0100008040260100000040880169
:100CD000000080408801000080405D0100008040ED
:100CE0005D01000080404A01000080404A01000090
:100CF00080402601000000400601000080400601FF
:100D00000000804088010000804088010000804091
:100D1000B80100008040B801000080408801000058
:100D200000405D01000080405D01000080404A01FC
:100D3000000080404A010000804026010000804001
:100D4000260100008040060100000040430101012F
:100D500001010101014403030303030303034507E6
:100D600007070707070707460F0F0F0F0F0F0F0F94
:100D7000471F1F1F1F1F1F1F1F413F3F3F3F3F3F79
:100D80003F3F427F7F7F7F7F7F7F7F432100410006
:100D9000830006010B0217042D085A104425004950
:100DA00000930026014B0297042D095B1245290090
:100DB0005200A5004A01930227054D0A0000462C67
:100DC000005700AF005D01BA027505EA0A0000474E
:100DD00031006200C400880110032006400C0000AE
:100DE0004137006E00DC00B8017003E006C00D0062
:100DF00000423E007B00F700EE01DC03B8076F0FF6
:100E00000000000000002300260029000000000070
:100E1000250028002B000404040404040404020236
:100E20000202020203030303030301020408102069
:100E30004080010204081020010204081020E82468
:100E4000203511241FBECFEFD8E0DEBFCDBF26E096
:100E5000A6EFB1E001C01D92A331B207E1F711E0A6
:100E6000A0E0B1E0E8EEF5E702C005900D92A63FE4
:100E7000B107D9F717E0C0E2D7E004C02197FE011F
:100E80000E944437CF31D107C9F70E9427270C941D
:100E9000E73A0C94000030E020E0F901E557F24F0A
:100EA000E491E81313C0E62F693060F0E8E0E15008
:100EB000FF0BEE0FFF1FE20FF31FE457F24F859178
:100EC00094910895623098F7E2E0F1CF2F5E3F4FA2
:100ED0002737310511F780E090E00895982F6332AD
:100EE00039F4853419F081E0923449F480E007C088
:100EF000623631F48634D1F381E09334B9F3089546
:100F000081E008956150673008F092C0E62FF0E06C
:100F1000E457F84F0C94443705089307A607B90720
:100F2000CC07DF07F207811105C040930506409307
:100F30000B0608958150990B26E0289FF001299F08
:100F4000F00D1124ED5FF94F42830895811105C022
:100F50004093060640930C0608958150990B26E0B5
:100F6000289FF001299FF00D1124ED5FF94F438375
:100F70000895811105C04093070640930D0608951A
:100F80008150990B26E0289FF001299FF00D112434
:100F9000ED5FF94F44830895811105C04093050624
:100FA00040930B06D5CF8150990B26E0289FF00186
:100FB000299FF00D1124ED5FF94F4283D8CF8111A5
:100FC00005C04093060640930C06D5CF8150990B7F
:100FD00026E0289FF001299FF00D1124ED5FF94FC5
:100FE0004383D8CF811105C04093050640930B067B
:100FF000C2CF8150990B26E0289FF001299FF00D68
:101000001124ED5FF94F4283C5CF811105C0409394
:10101000050640930B06D5CF8150990B26E0289FFB
:10102000F001299FF00D1124ED5FF94F4283D8CFD5
:1010300081110DC01092050610920B061092060643
:1010400010920C061092070610920D06089581501A
:10105000990B26E0289FF001299FF00D1124ED5FE8
:10106000F94F128213821482089591E090938203C3
:101070008093A403109283031092A5030895909186
:101080005503809154032FEF3FEF981748F4E92F51
:10109000F0E0EC5CFC4F208130E09F5F90935503C3
:1010A000C901089590915503809154032FEF3FEFAC
:1010B000981748F4E92FF0E0EC5CFC4F208130E019
:1010C0009F5F90935503C9010895809154039091B7
:1010D0005503891B990B0895833081F028F48130E2
:1010E00099F08230A9F008958730A9F08830C9F0CE
:1010F0008430B1F4809180008F7D03C080918000A6
:101100008F7780938000089584B58F7784BD08958C
:1011100084B58F7DFBCF8091B0008F778093B00036
:1011200008958091B0008F7DF9CFCF93DF93282F62
:1011300030E0F901EE54FA4F8491F901E65DF14F88
:10114000D491F901EA5EF14FC491CC23A1F0811151
:101150000E946C08EC2FF0E0EE0FFF1FEE5FF14FE6
:10116000A591B491EC91ED2381E090E009F480E049
:10117000DF91CF91089580E090E0FACF1F93CF9355
:10118000DF93282F30E0F901EE54FA4F8491F901F2
:10119000E65DF14FD491F901EA5EF14FC491CC23A1
:1011A000A9F0162F81110E946C08EC2FF0E0EE0FD1
:1011B000FF1FE45FF14FA591B4918FB7F894EC91C4
:1011C000111108C0D095DE23DC938FBFDF91CF9142
:1011D0001F910895DE2BF8CFCF93DF9390E0FC01B1
:1011E000E65DF14F24918A5E914FFC018491882342
:1011F000C9F090E0880F991FFC01E855FA4FA591BE
:10120000B491FC01E45FF14FC591D49161110DC01F
:101210009FB7F8948C91209582238C938881282302
:1012200028839FBFDF91CF910895623051F49FB71B
:10123000F8943C91822F809583238C93E8812E2B08
:10124000EFCF8FB7F894EC912E2B2C938FBFEACF72
:101250001F93CF93DF93182FEB0161E00E94EC08FE
:10126000209739F460E0812FDF91CF911F910C948A
:10127000BE08CF3FD10511F461E0F5CFE12FF0E0DA
:10128000EE54FA4FE491E33031F140F4E130B1F043
:10129000E230E1F0C038D1057CF7E4CFE73029F146
:1012A000E83059F1E430B1F780918000806280939A
:1012B0008000D0938B00C0938A0004C084B58068FE
:1012C00084BDC7BDDF91CF911F91089584B5806221
:1012D00084BDC8BDF7CF8091800080688093800076
:1012E000D0938900C0938800EDCF8091B0008068D2
:1012F0008093B000C093B300E5CF8091B0008062CE
:101300008093B000C093B400DDCF8E3008F08E50D3
:101310008770806480937C0080917A0080648093E1
:101320007A0080917A0086FDFCCF809178009091C0
:10133000790008953FB7F89480913003909131037C
:10134000A0913203B091330326B5A89B05C02F3F6F
:1013500019F00196A11DB11D3FBFBA2FA92F982FDB
:101360008827BC01CD01620F711D811D911D42E0D6
:10137000660F771F881F991F4A95D1F708958F929E
:101380009F92AF92BF92CF92DF92EF92FF926B014A
:101390007C010E949A094B015C01C114D104E10453
:1013A000F104B9F00E949A09681979098A099B0920
:1013B000683E73408105910580F321E0C21AD1088F
:1013C000E108F10888EE880E83E0981EA11CB11C8C
:1013D000E4CFFF90EF90DF90CF90BF90AF909F90C1
:1013E0008F9008957F928F929F92AF92BF92CF92EB
:1013F000DF92EF92FF920F931F93CF93DF93CDB7BE
:10140000DEB764970FB6F894DEBF0FBECDBF182FBE
:10141000062F26E0722E813011F495E0792ECE0150
:1014200001966C015E0195E1A90EB11C760160E0A8
:10143000872D0E94BE0861E070E080E090E00E948D
:10144000BF098FE00E9485094C0161E0872D0E9451
:10145000BE0861E070E080E090E00E94BF098FE08C
:101460000E9485098815990508F458C088199909BA
:10147000F701819391937F01AE16BF06C1F660E03C
:10148000872D0E94BE0890E080E0F6012191319105
:101490006F01820F931FEE15FF05B9F76AE070E048
:1014A0000E94EF369B0170E060E00023D1F0812FB5
:1014B0008150990BFC01EE0FFF1FE958FA4F63852D
:1014C00074856115710569F0269FC001279F900DF5
:1014D000369F900D112460918605709187050E94BA
:1014E000EF36C901860F971F8130E2E09E0714F0A6
:1014F00080E092E064960FB6F894DEBF0FBECDBFD9
:10150000DF91CF911F910F91FF90EF90DF90CF90DF
:10151000BF90AF909F908F907F90089590E080E073
:10152000A7CFCF9361E081E00E94F209E0917B05B3
:10153000F0E0EE0FFF1FE958FA4F2081C0E02817B6
:10154000190608F4C2E061E070E080E090E00E94DB
:10155000BF0961E082E00E94F209E0917B05F0E0C2
:10156000EE0FFF1FE958FA4F318121E038171906B5
:1015700008F020E0822F8C2BCF910895CF93C0915B
:101580007505813011F0C091760561E08DE00E9413
:10159000BE0861E070E080E090E00E94BF098C2FFF
:1015A0000E949508C82F60E08DE00E94BE088C2F35
:1015B000CF9108951F93CF93DF93C62FD42F81111E
:1015C00016C081E00E94BE0A182F82E00E94BE0A67
:1015D00091E0D11390E0C91305C091E0D81390E0D9
:1015E00081E09C1380E0DF91CF911F9108950E94CC
:1015F000BE0AF3CFCF9381E00E94BE0AC0E0811102
:1016000001C0C2E061E070E080E090E00E94BF09AC
:1016100082E00E94BE0A91E0811190E0892F8C2B1C
:10162000CF910895089508959091000189130BC0FA
:10163000E7EAF5E0E4919FEF90930001E13049F093
:1016400028F0E23061F060E00C94BE0810926E0069
:10165000FACF90916F009D7F90936F00F4CF90919F
:1016600070009D7F9093700091E09093B0009091F6
:10167000B100987F94609093B1001092B300E3CFD3
:101680004F925F926F927F928F929F92AF92BF9292
:10169000CF92DF92EF92FF920F931F93CF93DF933E
:1016A00000D000D01F92CDB7DEB78B0129013A01DF
:1016B000909100018917C9F09F3F09F47EC00F90F7
:1016C0000F900F900F900F90DF91CF911F910F917E
:1016D000FF90EF90DF90CF90BF90AF909F908F9052
:1016E0007F906F905F904F900895E7EAF5E09491B6
:1016F0009D8397FDE4CF61E00E94EC088D818823F3
:1017000021F09D81923009F04AC14801B12CA12CF1
:1017100060E072E18AE790E0A50198010E94253718
:1017200029833A834B835C8369017A0181E0C81A7B
:10173000D108E108F1089FEFC916D104E104F104D2
:1017400009F00CF401C160E472E48FE090E0A501BF
:1017500098010E94253769017A0181E0C81AD108F1
:10176000E108F1089D81923009F0A2C08FEFC81600
:10177000D104E104F10409F00CF4E6C160E970ED74
:1017800083E090E0A50198010E94253769017A0164
:1017900091E0C91AD108E108F1088FEFC816D10409
:1017A000E104F10411F00CF07FC183E09091B100ED
:1017B000987F892B8093B100CFC080930001E7EA26
:1017C000F5E094919D839F3F09F479CF913041F1E9
:1017D00050F0923009F446C09D8197FD70CF61E0D2
:1017E0000E94EC088ECF14BC15BC94B5926094BDD9
:1017F00095B5916095BD282F30E0F901EA5EF14F73
:10180000E491F0E0EE0FFF1FE45FF14F459154913A
:10181000F901E65DF14FE491E0939F021D826BCFE9
:1018200010928000109281009091810098609093B6
:10183000810090918100916090938100282F30E089
:10184000F901EA5EF14FE491F0E0EE0FFF1FE45F73
:10185000F14F45915491F901E65DF14FE491E09328
:101860009E0249CF1092B0001092B1009091B0004A
:1018700092609093B0009091B10091609093B1000C
:10188000282F30E0F901EA5EF14FE491F0E0EE0F2D
:10189000FF1FE45FF14F459154915093A90240938B
:1018A000A802F901E65DF14FE491E093AA0223CF8B
:1018B0009FEFC916D104E104F10409F00CF46DC0E6
:1018C00068E478EE81E090E0A50198010E94253758
:1018D00069017A0181E0C81AD108E108F1089D8107
:1018E000992309F4FAC08FEFC816D104E104F1047A
:1018F00011F00CF0FBC0EFC064E274EF80E090E008
:10190000A50194010E94253769017A0181E0C81A76
:10191000D108E108F10885E09FEFC916D104E10480
:10192000F10409F008F442CF62E17AE780E090E048
:10193000A50194010E94253769017A0181E0C81A46
:10194000D108E108F108E5C081E09D8191112ECF19
:1019500095B5987F892B85BD2FEF3FEFA9014114E5
:1019600051046104710409F043C09D81913009F470
:101970005EC0923009F46DC09111A1CEC7BC209316
:10198000A4023093A5024093A6025093A70280912F
:101990006E00826080936E0092CE82E0D6CFB12C32
:1019A000A12C60E072E18AE790E0A50198010E9415
:1019B000253769017A0181E0C81AD108E108F108E8
:1019C000C114D10491E0E906F10404F591E08D81A0
:1019D000813011F680918100887F892B809381006E
:1019E0002FEF3FEFA9014114510461047104F9F094
:1019F000D801AA0FBB1FA30192010E946C3628EEEA
:101A000033E040E050E00E940337AFCF68E478EE67
:101A100081E090E0A50198010E94253769017A01D3
:101A200081E0C81AD108E108F10893E0D0CFD09244
:101A30008900C09288002093A0023093A1024093B5
:101A4000A2025093A30280916F00826080936F0086
:101A500036CEC092B3002093AB023093AC024093D9
:101A6000AD025093AE02809170008260809370004E
:101A700026CE84E09FEFC916D104E104F10409F0F9
:101A800008F466CFC980DA80EB80FC808AE0F594A8
:101A9000E794D794C7948A95D1F781E0C81AD10802
:101AA000E108F10885E054CF68E478EE81E090E049
:101AB000A50198010E94253769017A0181E0C81AC1
:101AC000D108E108F1089FEFC916D104E104F1043F
:101AD00011F00CF011CF84E069CE83E09FEFC916BE
:101AE000D104E104F10409F00CF432CF62E17AE7A9
:101AF00080E090E0A50194010E94253769017A01F8
:101B000081E0C81AD108E108F1089D81992309F400
:101B1000B0CF86E09FEFC916D104E104F10409F0CB
:101B200008F444CEC980DA80EB80FC809AE0F5941A
:101B3000E794D794C7949A95D1F781E0C81AD10851
:101B4000E108F10887E032CE82E030CECF92DF921A
:101B5000EF92FF920F931F93CF93DF9300D000D0AB
:101B600000D0CDB7DEB796E0E8E0F1E0DE011196F7
:101B700001900D929A95E1F79091A903E1E0F0E0D0
:101B8000EC0FFD1FE90FF11D4081841708F063C0C1
:101B9000913009F454C0923009F454C0933009F4E0
:101BA00054C0943009F454C0953011F40EE316E09B
:101BB00096E0899F000D111D1124F80132962591A0
:101BC00035914591549160E070E08AE794E40E9479
:101BD000C3370E943538F801A591B4916B01770F96
:101BE000EE08FF08109731F0A7019601BD0183E0D0
:101BF0000E94400BC701B6010E94393526E636E641
:101C000046EA5FE30E9498350E943538072E000CA3
:101C1000880B990B0E94BF0983E00E94140B81E09E
:101C200026960FB6F894DEBF0FBECDBFDF91CF91E1
:101C30001F910F91FF90EF90DF90CF90089500E5F6
:101C40001CE0B6CF0AE21BE0B3CF08E319E0B0CF47
:101C500002E817E0ADCF80E0E3CFAF92BF92CF9222
:101C6000DF92EF92FF920F931F93CF93DF936C015C
:101C70007B018B01040F151FEB015E01AE18BF083D
:101C8000C017D10759F06991D601ED91FC910190EF
:101C9000F081E02DC6010995892B79F7C501DF9107
:101CA000CF911F910F91FF90EF90DF90CF90BF9059
:101CB000AF900895FC01538D448D252F30E0842F83
:101CC00090E0821B930B541710F0CF960895019764
:101CD0000895FC01918D828D981761F0A28DAE0F51
:101CE000BF2FB11D5D968C91928D9F5F9F73928FD8
:101CF00090E008958FEF9FEF0895FC01918D828D04
:101D0000981731F0828DE80FF11D858D90E00895D0
:101D10008FEF9FEF0895FC01918D228D892F90E028
:101D2000805C9F4F821B91098F73992708958AEADF
:101D300093E00E948B0E21E0892B09F420E0822F92
:101D4000089580E090E0892B29F00E94970E811180
:101D50000C9400000895FC01A48DA80FB92FB11DAB
:101D6000A35ABF4F2C91848D90E001968F739927D1
:101D7000848FA689B7892C93A089B1898C918370AF
:101D800080648C93938D848D981306C00288F389A8
:101D9000E02D80818F7D80830895EF92FF920F93D5
:101DA0001F93CF93DF93EC0181E0888F9B8D8C8D07
:101DB00098131AC0E889F989808185FF15C09FB7FB
:101DC000F894EE89FF896083E889F98980818370BE
:101DD000806480839FBF81E090E0DF91CF911F916D
:101DE0000F91FF90EF900895F62E0B8D10E00F5F8E
:101DF0001F4F0F731127E02E8C8D8E110CC00FB664
:101E000007FCFACFE889F989808185FFF5CFCE01FB
:101E10000E94AB0EF1CFEB8DEC0FFD2FF11DE35ABD
:101E2000FF4FF0829FB7F8940B8FEA89FB8980817E
:101E30008062CFCFCF93DF93EC01888D8823B9F0F8
:101E4000AA89BB89E889F9898C9185FD03C08081C5
:101E500086FD0DC00FB607FCF7CF8C9185FFF2CF42
:101E6000808185FFEDCFCE010E94AB0EE9CFDF91DF
:101E7000CF91089520917B02260F3327331F213203
:101E80003105ECF420917C03FC0190E080E02430EB
:101E900069F082E00895A0917B022191AC01455A3E
:101EA0005D4FA40FB52FB11D2C930196861798F3A3
:101EB00080917B02680F60937B0280E0089581E04F
:101EC000089510927C0381E080937B031092560367
:101ED00061E082E10E94BE0861E083E10E94BE08E9
:101EE000E9EBF0E080818E7F808380818D7F80832D
:101EF00088E48093B80085E48093BC000895CF9374
:101F0000DF9391E090935A028823B9F0C091B80012
:101F1000D091BA008091BC008A7B8093BC0060E0C5
:101F200082E10E94BE0860E083E10E94BE080E9438
:101F3000610FD093BA00C093B800DF91CF9108959C
:101F40008F929F92AF92BF92CF92DF92EF92FF92C9
:101F50000F931F93CF93DF93D091A503D13208F055
:101F6000D7C0182FC091A4030E949A096B017C016D
:101F700080917C0381116BC082E080937C0310937D
:101F80007B038FEF80937A0310927903D0937803C9
:101F9000A4E8B3E0E8E5F3E080E0D81391C0109244
:101FA000570380915703CC0FC82BC09357038091E0
:101FB0005603813009F088C0109256030E949A0996
:101FC0006B017C01809157038093BB0080917E035D
:101FD00090917F03A0918003B0918103892B8A2B7C
:101FE0008B2BA1F00E949A0900917E0310917F0330
:101FF00020918003309181036C197D098E099F091E
:10200000061717072807390708F442C08091BC005B
:1020100083FDD8CF85EC8093BC000E949A096B01A8
:102020007C0180917C03823009F450C080917A0356
:102030008F3F09F46FC080917A03803209F46CC03D
:1020400080917A03803309F469C084E026C08091CE
:102050007E0390917F03A0918003B0918103892B2F
:102060008A2B8B2B09F484CF0E949A0980907E03DF
:1020700090907F03A0908003B09081036C197D093C
:102080008E099F0986169706A806B90608F070CF34
:1020900080917D030E947F0F85E010928303109250
:1020A000A50310928203DF91CF911F910F91FF90B2
:1020B000EF90DF90CF90BF90AF909F908F9008955A
:1020C0009D9191938F5F69CF85EEA5CF80917E031F
:1020D00090917F03A0918003B0918103892B8A2B7B
:1020E0008B2B09F49ECF0E949A0900917E031091D8
:1020F0007F0320918003309181036C197D098E0943
:102100009F09061717072807390708F08ACFC0CF9D
:1021100081E0C3CF80E0C1CF82E0BFCF83E0BDCFFD
:1021200081E00C94A00F0895E09155038091540331
:10213000E81730F4F0E0EC5CFC4F808190E008950B
:102140008FEF9FEF0895CF92DF92EF92FF920F9360
:102150001F93CF93DF937C01CB018A0120918203EF
:10216000222389F0EB016B01C40ED51ECC15DD05D1
:1021700069F06991D701ED91FC910190F081E02D1A
:10218000C7010995F3CF642F0E943A0FC801DF9170
:10219000CF911F910F91FF90EF90DF90CF90089516
:1021A000CF93DF931F92CDB7DEB76983209182036F
:1021B0002223F9F02091A503203258F021E030E0ED
:1021C000FC013383228390E080E00F90DF91CF9178
:1021D000089580918303E82FF0E0EC57FC4F99813C
:1021E00090838F5F809383038093A50381E090E0C9
:1021F000ECCF61E0CE0101960E943A0FF7CF682F35
:1022000087E494E00C94D010EF92FF920F931F9309
:10221000CF93DF9300D000D000D0CDB7DEB7498395
:102220005A836B837C838D839E83022F842F0E942D
:1022300035086A8187E494E00E94D0107E0183E033
:10224000E80EF11C10E0F70161917F0187E494E052
:102250000E94D0101F5F0113F6CF81E00E94A00FF3
:1022600026960FB6F894DEBF0FBECDBFDF91CF919B
:102270001F910F91FF90EF9008952091B50230913A
:10228000B6022817390771F49091B3028091B40215
:10229000981741F0E091B302F0E0E65EFD4F8081D7
:1022A00090E008958FEF9FEF0895EF92FF920F93C4
:1022B0001F93CF93DF93DC015C96ED90FC905D97CC
:1022C000E114F10479F481E090E013969C938E93ED
:1022D000129790E080E0DF91CF911F910F91FF90D6
:1022E000EF9008955196ED91FC91529750968C91F4
:1022F0005097982F90950FB75E962C915E97122F5E
:10230000127021FD6095F8942081112319F1282B7A
:102310002083E7012197F1F728E0462F50E0308134
:1023200060FF1AC0382B3083E7012197F1F7BA011B
:1023300075956795215089F7112381F08081892354
:1023400080830FBF5C968D919C910197F1F781E09E
:1023500090E0C1CF2923DCCF3923E5CF9081892BB1
:10236000EFCF2091B5023091B6022817390761F4FA
:102370008091B4022091B30290E0805C9F4F821B59
:1023800091098F739927089590E080E00895209136
:10239000B5023091B60228173907B9F49091B3020B
:1023A0008091B402981789F0E091B302F0E0E65E04
:1023B000FD4F80812091B30230E02F5F3F4F2F739C
:1023C00033272093B30290E008958FEF9FEF089595
:1023D000E091B502F091B602E817F90769F4A38914
:1023E000B4899C918589809589238C931092B6023B
:1023F0001092B50281E0089580E0089590E080E0B9
:102400000895A8E1B2E0E82FF0E0E252FD4F90819C
:102410009C938F5FE82FF0E0E252FD4F8081119690
:102420008C9380911802909119020895682F8AEA7E
:1024300093E00C94CD0ECF93DF93D82FC92F83E078
:102440000E941612D0931802C09319028D2F0E9479
:1024500016128C2FDF91CF910C941612CF93C82FA8
:1024600081E00E9416128C2FCF910C9416120F93BC
:102470001F93CF93DF938B01D82FC92F82E00E9447
:102480001612C801AD2FBC2F809314029093150231
:10249000A0931602B09317020E941612812F0E9479
:1024A00016128D2F0E9416128C2FDF91CF911F9143
:1024B0000F910C941612CF92DF92EF92FF920F932E
:1024C0001F93CF93DF93D82FC62F0E949A096B01D9
:1024D0007C0180917C03811165C081E080937C0345
:1024E00080937B039FEF90937A03109279039C0F64
:1024F000909378038093570380915703DD0FD82B77
:10250000D093570380915603813009F07FC0109219
:1025100056030E949A096B017C01809157038093B6
:10252000BB0080917E0390917F03A0918003B091C6
:102530008103892B8A2B8B2BA1F00E949A09009191
:102540007E0310917F0320918003309181036C19E9
:102550007D098E099F09061717072807390708F410
:1025600042C08091BC0083FDD8CF85EC8093BC0035
:102570000E949A096B017C0180917C03813009F4EF
:1025800047C0809179038C1710F4C0917903A8E5B6
:10259000B3E0E4E3F3E080E08C1751F19D91919377
:1025A0008F5FFACF80917E0390917F03A09180038B
:1025B000B0918103892B8A2B8B2B09F48ACF0E943F
:1025C0009A0900917E0310917F032091800330913E
:1025D00081036C197D098E099F09061717072807C3
:1025E000390708F076CF80917D030E947F0FC0E00D
:1025F00010925503C09354038C2FDF91CF911F91FC
:102600000F91FF90EF90DF90CF90089585EEAECFC1
:1026100080917E0390917F03A0918003B09181030C
:10262000892B8A2B8B2B09F4A7CF0E949A09009142
:102630007E0310917F0320918003309181036C19F8
:102640007D098E099F09061717072807390708F023
:1026500093CFC9CFCF92DF92EF92FF920F931F9348
:10266000CF93809157050E94350860E087E494E09D
:102670000E94D01080E00E94A00FC82F80916405B6
:1026800064E0811167E0809157050E945B12909190
:10269000540380915503981709F493C00E9452087F
:1026A0008093580580916405882309F493C00E94A3
:1026B0005208182F0E94520860E0712F680F791F8E
:1026C00070935B0560935A0577FF02C0615C7F4F92
:1026D00026E0759567952A95E1F7072E000C880B83
:1026E000990B0E9439352091600530916105409128
:1026F0006205509163050E9498356093650570935B
:10270000660580936705909368050E945208182F0C
:102710000E94520860E0712F680F791F70935D0569
:1027200060935C0577FF02C0615C7F4F96E0759512
:1027300067959A95E1F7072E000C880B990B0E947C
:1027400039352091600530916105409162055091C5
:1027500063050E9498356093690570936A058093BC
:102760006B0590936C050E945208182F0E94520826
:1027700060E0712F680F791F70935F0560935E05AD
:1027800077FF02C0615C7F4F86E0759567958A95FB
:10279000E1F7072E000C880B990B0E943935209128
:1027A00060053091610540916205509163050E947A
:1027B000983560936D0570936E0580936F059093C7
:1027C00070058C2FCF911F910F91FF90EF90DF90AC
:1027D000CF9008950E94520820E0382F37FF02C0A2
:1027E00021503F4F832F880F880B30935A058093D9
:1027F0005B050E94520820E0382F37FF02C02150AD
:102800003F4F832F880F880B30935C0580935D05C5
:102810000E94520820E0382F37FF02C021503F4F5E
:10282000032F132F110F110B10935F0500935E05FB
:10283000C0906005D0906105E0906205F09063055E
:1028400060915A0570915B05072E000C880B990B5F
:102850000E943935A70196010E949835609365055D
:1028600070936605809367059093680560915C0599
:1028700070915D05072E000C880B990B0E9439356D
:10288000A70196010E9498356093690570936A05C7
:1028900080936B0590936C05B801110F880B990B11
:1028A0000E943935A701960182CFFB0101900020DB
:1028B000E9F73197AF01461B570BDC01ED91FC9115
:1028C0000280F381E02D09948F929F92AF92BF9284
:1028D0000F931F93CF93DF93CDB7DEB7A1970FB6BA
:1028E000F894DEBF0FBECDBF19A2423008F44AE013
:1028F0008E010F5D1F4F842E912CB12CA12CA501B0
:1029000094010E940337E62FB901CA01EA3004F5A9
:10291000E05DD801EE938D01232B242B252B79F735
:1029200090E080E0109729F0BD018AEA93E00E94D0
:102930005514A1960FB6F894DEBF0FBECDBFDF9140
:10294000CF911F910F91BF90AF909F908F9008955E
:10295000E95CDFCFBC01990F880B990B40E10C9427
:102960006414CF93DF938031910534F4EC0190E04F
:1029700080E00E94AA14CE01DF91CF910C94AA149A
:102980006EE571E00C9455140F931F93CF93DF9372
:10299000EC018C01045F1F4F68818AEA93E00E947A
:1029A000CD0E69818AEA93E00E94CD0E6A818AEA9F
:1029B00093E00E94CD0E6B818AEA93E00E94CD0ED7
:1029C0006C818AEA93E00E94CD0E6D818AEA93E0E1
:1029D0000E94CD0E8AEA93E00E94C0142696C0178A
:1029E000D107D1F6DF91CF911F910F910895E3E0C8
:1029F000F6E096E0899F9001112493E0245031097C
:102A000081110DC012821086915031969111F8CF2C
:102A10004FEF0E94820783E096E00C94C414DF011C
:102A2000A20FB31F1C92F0CF40E00E94820783E008
:102A300096E00C94C414CF93DF9300D000D000D064
:102A4000CDB7DEB75A836B837C838D839E83642FDF
:102A50008AEA93E00E94CD0E6A818AEA93E00E949E
:102A6000CD0E6B818AEA93E00E94CD0E6C818AEADA
:102A700093E00E94CD0E6D818AEA93E00E94CD0E14
:102A80006E818AEA93E00E94CD0E8AEA93E0269650
:102A90000FB6F894DEBF0FBECDBFDF91CF910C947F
:102AA000C0140F931F93CF93DF93EC010E94551432
:102AB0008C01CE010E94C014800F911FDF91CF9135
:102AC0001F910F910895CF93DF938FEF0E941612FD
:102AD00086E50E941612C9EBD2E0888199810E9496
:102AE000B1148A819B810E94B1148C819D810E94C6
:102AF000AA148E819F810E94AA14888599850E94BC
:102B0000AA148A859B850E94AA148C859D850E94A3
:102B1000B1148E859F850E94B114888999890E947D
:102B2000B1148A899B890E94B1148C899D890E9465
:102B3000B1148E899F890E94B114888D998D0E944D
:102B4000B1148AEA93E0DF91CF910C94C014809184
:102B50001903882349F080911803882329F06FEF27
:102B60008CE295E00C9455118FEF0E94161285E5CA
:102B70000E9416128AEA93E00C94C014CF93DF935C
:102B8000EC0126E0629FC00DD11D112468818AEA04
:102B900093E00E94CD0E69818AEA93E00E94CD0EF7
:102BA0006A818AEA93E00E94CD0E6B818AEA93E003
:102BB0000E94CD0E6C818AEA93E00E94CD0E6D8159
:102BC0008AEA93E00E94CD0E8AEA93E0DF91CF91EA
:102BD0000C94C0140F931F93CF93DF93613079F55A
:102BE000EC018C01085E1F4F68818AEA93E00E9425
:102BF000CD0E69818AEA93E00E94CD0E6A818AEA4D
:102C000093E00E94CD0E6B818AEA93E00E94CD0E84
:102C10006C818AEA93E00E94CD0E6D818AEA93E08E
:102C20000E94CD0E8AEA93E00E94C0142696C01737
:102C3000D107D1F6DF91CF911F910F910895DF91C8
:102C4000CF911F910F910C94BE15CF93DF931092EB
:102C50008A0510928B0510928C0530E020E0F90176
:102C6000E45BF24FE491E81329C050E040E0235BBD
:102C7000324FD3E0C6E0842FF901E40FF51FE49151
:102C80006D2F0E94CD36A92F90E00196C89FB0010C
:102C9000C99F700D112468577A4FA60FB72FB11D29
:102CA0001296EC934F5F5F4F4830510521F761E07A
:102CB00088E895E0DF91CF910C94EA15275F3F4FAC
:102CC0002F33310561F6F3CFCF93DF9310928A054E
:102CD00010928B0510928C0598E0899FA001112419
:102CE00030E020E04A535A4FD3E0C6E0822FFA0189
:102CF000E20FF31FE4916D2F0E94CD36A92F90E0D3
:102D00000196C89FB001C99F700D112468577A4F72
:102D1000A60FB72FB11D1296EC932F5F3F4F2830AF
:102D2000310521F761E088E895E0DF91CF910C94BF
:102D3000EA15E8E8F5E012821382148260E0CF0120
:102D40000C94BE151092D405E5EDF5E084E0DF01AA
:102D50001D928A95E9F708950E94A2168091D305E5
:102D60000E94350880E490E00E94FF100E949010BD
:102D700061E070E080E090E00C94BF09CF93C82F31
:102D80000E94A216C15051E0C43028F4EC2FF0E0AC
:102D9000E05EFE4F50815093D4056091DA05609358
:102DA000D50521E04091D3057091D6058091D705D6
:102DB0009091D8050E94041161E070E080E090E0FD
:102DC000CF910C94BF090F931F93CF93C82F8B0102
:102DD0000E94A216C15050E0C43028F4EC2FF0E05D
:102DE000E45EFE4F50815093D4056091DA05609304
:102DF000D5051093D6050093D70523E04091D30560
:102E0000712F802F9091D8050E940411B80190E095
:102E100080E0CF911F910F910C94BF090F931F93E6
:102E200090E0FC01E65DF14FA491FC01EA5EF14FF8
:102E3000E491F0E0EE0FFF1FEE5FF14F859194916A
:102E40008A019B013F704A2F6A2F0E946E246115F0
:102E500071058105910529F06F5F7F4F8F4F9F4F5F
:102E60009F701F910F91089585ED8093BC00809114
:102E70007E0390917F03A0918003B0918103079618
:102E8000A11DB11D23E0B695A795979587952A9525
:102E9000D1F72091BC0024FD03C010927C0308955B
:102EA00040917E0350917F03609180037091810374
:102EB000452B462B472B69F30097A105B10541F03F
:102EC0002AE22A95F1F700C00197A109B109E1CFE3
:102ED00080917D030C947F0F8F929F92AF92BF924F
:102EE000CF92DF92EF92FF9285E10E948509BC01AB
:102EF000990F880B990B0E94393520E030E040E8AB
:102F00005AE30E9498352DEC3CEC4CE650E40E94CC
:102F100098356B017C0120E030E44CE156E40E94DE
:102F200098354B015C01A70196016DEC7CEC8CE6B9
:102F300090E40E9456379B01AC01C501B4010E9488
:102F4000C3370E9478386B017C0129E537E44CEBEC
:102F500053E30E949835A70196010E949835A70176
:102F600096010E9498354B015C0123E73FE745E756
:102F700059E3C701B6010E9498352BEE3FEF43E9B4
:102F80005AE30E9457379B01AC01C501B4010E946E
:102F900057379B01AC0160E070E080E89FE30E943E
:102FA000C33723E333E948E853E40E945637FF90E0
:102FB000EF90DF90CF90BF90AF909F908F9008954B
:102FC0000C945E3661E084E090E00E94E01760E0DF
:102FD00085E090E00E94E01761E086E090E00E94CA
:102FE000E01760E087E090E00E94E01760E088E092
:102FF00090E00C94E0170C9456361F93CF93DF9318
:10300000EC0190E080E00E94FB17182F81E090E037
:103010000E94FB171F3FD9F460E090E080E00E941F
:10302000E01760E081E090E00E94E01760E082E05D
:1030300090E00E94E01760E083E090E00E94E017DB
:103040001E8E1D8E18A21F8E80E090E006C01230EA
:10305000E1F790E09195819591099AA389A382E087
:1030600090E00E94FB17182F83E090E00E94FB176E
:1030700090E0123019F49195819591099CA38BA34E
:10308000CE018196DF91CF911F910895CF93C62FE6
:1030900096E09093AF0581508430E0F4E82FF0E0A3
:1030A000EC5DFE4F80818093B0058EEA95E00E9432
:1030B000FD17C093B105C093B2054091AE05509184
:1030C000AF056091B0057C2F8C2F9091B305CF9107
:1030D0000C941B1581E1E7CFAF92BF92CF92DF92A4
:1030E000EF92FF920F931F93CF93DF93CDB7DEB78D
:1030F00028970FB6F894DEBF0FBECDBF1091E40243
:1031000081508E3208F05FC0E82FF0E0E657F74EAE
:103110000C9444376C20771FB818E318EE19E318A5
:10312000D419E318E318E318E318E318E318E318D5
:10313000E318E318E318E318E318E318E318E318B7
:10314000E318E3180A1DD11A791D011D1A1A4A2025
:1031500051205120DE1F5C20E318E318E318E31828
:10316000E318E318A41FE318DE1F8B1FE318421CAB
:1031700011113AC087E00E9401128C018091E00297
:103180008730B8F00115110581F089E00E94011225
:103190006C01990FEE08FF08A7019601B80183E0C2
:1031A0000E94400BC701B60128C083E00E94140BA7
:1031B0000AC001151105C9F320E030E0A901B801EA
:1031C00083E00E94400B28960FB6F894DEBF0FBE36
:1031D000CDBFDF91CF911F910F91FF90EF90DF90C6
:1031E000CF90BF90AF900895113051F489E00E94C4
:1031F0000112BC01990F880B990B0E94BF09E3CF04
:103200001230E9F489E00E9401126C011091E5028C
:10321000812F0E9425166091E602812F0E944B07A4
:103220000D2C000CEE08FF08A7019601BC0183E0FD
:103230000E94400BC701B6010E94BF0928C013308D
:1032400049F589E00E9401126C010091E50210919C
:10325000E902802F0E942516612F80E00E94F7145A
:103260006091E602802F0E944B070D2C000CEE08A7
:10327000FF08A7019601BC0183E00E94400BC70133
:10328000B6010E94BF09612F80E00E9414150E94C0
:10329000991699CF143029F58AE00E9401127C0119
:1032A0000091E7021091E502602F812F0E946E07C6
:1032B000882309F488CFD090E602812F0E9425163A
:1032C000402F6D2D812F0E94F9342091A6036701B4
:1032D000222321F0C090A703D090A803F12CE12C69
:1032E000A3CF1530D9F58AE00E940112A82EE92E4D
:1032F000F090E7021091E5026F2D812F0E946E077A
:10330000882309F460CFB090EB020091EA02D090DC
:10331000E602812F0E9425166B2D802F0E94F71444
:103320004F2D6D2D812F0E94F9342091A603CA2CB8
:10333000DE2C222321F0C090A703D090A803F12C0B
:10334000E12CA7019601BC0183E00E94400BC7015C
:10335000B6010E94BF096B2D802F97CF163069F4FC
:103360008091E5028093A90381E08093D902809344
:10337000D80280E00E94A60D26CF173009F023CF97
:1033800087E00E940112009739F41092A603109270
:10339000A8031092A70317CF21E02093A6039093D0
:1033A000A8038093A7030FCF133051F40E94A715F1
:1033B0001092DA0281E08093DB021092B80203CF10
:1033C000153009F000CF1092DA021092DB028091E2
:1033D000E5028093DC021092B702F5CE133059F467
:1033E0001092DB0281E08093DA0284E08093010195
:1033F0000E94A715E8CE143009F0E5CE8091E602D0
:103400009091E502913021F0923079F010E010C0F7
:1034100061E0811101C060E010E085E00E94BE081B
:10342000612F86E00E94BE08CECE11E0882371F3A2
:1034300060E0F3CF113009F0B0C060E081E00E949D
:10344000F2098C0160E082E00E94F2099801281BD9
:10345000390B26303105A4F12031310594F00333C6
:1034600011057CF010927D0510927C0525503109E4
:1034700030937F0520937E0590938105809380058E
:1034800010C085E090E0821B930B90937D058093A4
:103490007C0510927F0510927E05109381050093A4
:1034A000800580917C0590917D05009759F580916C
:1034B0007E0590917F05892B39F50E94E21783CE16
:1034C0002B3F4FEF34078CF4213F6FEF360734F476
:1034D000833391051CF08BEF9FEFD5CF10927D05C4
:1034E00010927C052B5F3F4FC3CF10927D05109249
:1034F0007C0510927F0510927E0510928105109236
:103500008005CFCF62E097FF61E084E090E00E9409
:10351000E01760917C0570917D0577FF03C0719580
:103520006195710985E090E00E94E01780917E0529
:1035300090917F0562E097FF61E086E090E00E9455
:10354000E01760917E0570917F0577FF03C071954C
:103550006195710987E090E00E94E0176091800515
:1035600088E090E00E94E01780917C0590917D05B5
:10357000909383058093820580917E0590917F05CD
:1035800090938505809384058091800590918105B5
:10359000909387058093860516CE133009F013CEDD
:1035A0008CCFF090E50288E18093B800111104C03F
:1035B0008F2D0E94BE1607CE113061F41092DB02EF
:1035C0001092DA0284E0809301011092B8020E9406
:1035D000AC16F9CD133071F489E00E940112893ED6
:1035E000ADEF9A0710F088EE9DEFBC018F2D0E9481
:1035F000E316E9CD153031F46091E70280E00E94D6
:10360000F714D6CF6091E6028F2D173009F466C10A
:10361000183049F587E00E9401127C0189E00E9480
:1036200001128C010E94A216C7018536910514F083
:1036300084E690E08233910514F482E390E0909365
:10364000DB058093DA05C8010536110514F084E620
:1036500090E08233910514F482E390E09093DD05CD
:103660008093DC05B0CD193009F045C087E00E9499
:1036700001127C0189E00E9401128C010E94A216B5
:103680002091DA053091DB052E0D3F1D8091DC0580
:103690009091DD05800F911F722F632F2F3F310511
:1036A00019F014F07FEF60E0472F562F4130BFEF45
:1036B0005B0714F441E05FEF5093DB054093DA05BC
:1036C000782F692F8F3F910519F014F07FEF60E09C
:1036D000472F562F4130EFEF5E0714F441E05FEFC4
:1036E0005093DD054093DC05232B09F06CCD892B2D
:1036F00009F069CD6CCF1A3041F51091E6020E94B5
:10370000A216F3E055E0FF1629F024E050E0F21293
:1037100001C056E05093D4056091DA056093D50559
:103720001093D60522E04091D305712F8091D705E3
:103730009091D8050E94041148EC149FB001112407
:10374000072E000C880B990B58CD1B3009F06FC069
:1037500088E00E9401126C018C018936914014F0BE
:1037600008E611E017FF02C010E000E00E94A21678
:1037700081E055E2F81629F0A2E050E0FA1201C00B
:1037800056E25093D4056091DA056093D505109305
:10379000D6050093D70523E04091D305712F802FE4
:1037A0009091D8050E940411F82E882369F061E6F3
:1037B00071E08AEA93E00E9455146F2D70E090E06A
:1037C00080E04AE00E94641420E0BAE5CB16D10400
:1037D0003CF0C8016EE170E00E94DB362EEF260F50
:1037E0008091DA059091DB056AE070E00E94EF3687
:1037F000EBEFE60FF6E02F9F90011124E20FF32F7D
:10380000F11DEE0FFF1FEE0FFF1FED51FE4FC59094
:10381000D590E590F490B80190E080E00E943735B3
:10382000A70196010E9498350E943C38E6CC1C30D6
:10383000F1F421E015E8F21629F042E010E0F4126C
:1038400001C016E880E60E943508612F87E494E005
:103850000E94D0106091E60287E494E00E94D010AC
:103860000E94901061E070E080E090E0C6CC1D30D6
:1038700009F0A9CC80E60E94350887E890E00E9414
:10388000FF10EECF0091E502113019F588E00E949B
:10389000011226E12093AF050093B10597FF15C0F3
:1038A00092E29093B00581958093B2054091AE0568
:1038B0005091AF056091B0057091B1058091B2054E
:1038C0009091B3050E941B157ECC91E19093B005B9
:1038D000EBCF123031F46091E602802F0E9446183F
:1038E00072CC133009F050C087E00E9401127C01B5
:1038F00089E00E9401128C0187E18093C105B1E14A
:10390000CB2EF7FE05C0F194E194F10882E2C82EB7
:10391000F1E1DF2E17FF05C0119501951109A2E213
:10392000DA2EC092C205E092C305D092C40500937E
:10393000C5051091C6056091C0058AEA93E00E9412
:10394000CD0E67E18AEA93E00E94CD0E6C2D8AEAE3
:1039500093E00E94CD0E6E2D8AEA93E00E94CD0E78
:103960006D2D8AEA93E00E94CD0E602F8AEA93E0E3
:103970000E94CD0E612F8AEA93E00E94CD0E8AEA62
:1039800093E00E94C0141FCC143009F01CCC87E0D7
:103990000E9401127C0189E00E9401128C0161E108
:1039A000F7FE04C0F194E194F10862E271E1D72ED0
:1039B00017FF05C0119501951109E2E2DE2E609313
:1039C000B60581E08093B705E092B8054091B40553
:1039D0005091B50571E08E2D9091B9050E941B158F
:1039E000D092B60582E08093B7050093B805409168
:1039F000B4055091B5056D2D72E0802F9091B905F9
:103A000061CF123009F0DFCB88E00E940112BC01C7
:103A100083E0EDCD0091E502F090E602111105C0C2
:103A20006F2D802F0E94F714CECB113029F46F2D0B
:103A3000802F0E941415C7CB133079F489E00E94BF
:103A400001126C016F2D802F0E94F714B601DD0C5E
:103A5000880B990B0E94BF09EACF143009F0B3CB51
:103A600062E080E00E94F71464EF71E080E090E093
:103A70000E94BF0963E080E00E94F71464EF71E0E8
:103A800080E090E00E94BF0964E080E00E94F714AB
:103A900064EF71E080E090E00E94BF0965E080E0A3
:103AA0000E94F71464EF71E080E090E00E94BF098B
:103AB00066E080E00E94F71464EF71E080E090E03F
:103AC0000E94BF0967E080E00E94F71464EF71E094
:103AD00080E090E00E94BF0961E080E00E94F7145E
:103AE00064EF71E080E090E00E94BF0960E080E058
:103AF000A0CF0091E502111150C01091E702F090A3
:103B0000E602011128C0F11010C0112309F4BFCB47
:103B10008FEF80938A0580938B0580938C0560E0FE
:103B200088E895E00E94BE154ECB01E00093A20507
:103B3000F092A3051093A40564E088E895E00E9444
:103B4000BE1561E070E080E090E00E94BF090F5F69
:103B5000093061F738CBF11018C0FF24F3940093BB
:103B6000A205F092A3051093A40564E088E895E00F
:103B70000E94BE1561E070E080E090E00E94BF0905
:103B8000F39469E0F612EBCF1ECB0093A205F092FE
:103B9000A3051093A40564E0C3CF113021F4802F56
:103BA0000E94641610CB123091F510928A05109283
:103BB0008B0510928C0589E0089F9001112450E03C
:103BC00040E024513D4F03E016E0842FF901E40F5B
:103BD000F51FE491602F0E94CD36A92F90E0019649
:103BE000189FB001199F700D112468577A4FA60FC6
:103BF000B72FB11D1296EC934F5F5F4F48305105C0
:103C000021F761E088E895E00E94EA15DCCA1330EC
:103C100069F510928A0510928B0510928C05A9E027
:103C20000A9F9001112450E040E02A523C4F03E0EB
:103C300016E0842FF901E40FF51FE491602F0E9434
:103C4000CD36A92F90E00196189FB001199F700DF5
:103C5000112468577A4FA60FB72FB11D1296EC9317
:103C60004F5F5F4F4830510521F7CBCF143069F5D6
:103C700010928A0510928B0510928C05B8E00B9F6C
:103C80009001112450E040E021543B4F03E016E046
:103C9000842FF901E40FF51FE491602F0E94CD36C7
:103CA000A92F90E00196189FB001199F700D112463
:103CB00068577A4FA60FB72FB11D1296EC934F5F3E
:103CC0005F4F4830510521F79CCF153009F4DFCA0A
:103CD000163009F41DCF173009F07BC0FE01319674
:103CE00088E0DF011D928A95E9F785EE92E05F0199
:103CF0009E01275F3F4FDF01FC014191CF014D93B2
:103D00002A173B07C9F7A6EAB5E088E0FD01119242
:103D10008A95E9F730E020E050E8E52EF12CB90172
:103D2000D5010D915D01A8E8B5E050E040E0DD244B
:103D3000D39410E0C701042E02C0959587950A948C
:103D4000E2F7802391236F3F7607E1F1062E02C050
:103D5000959587950A94E2F7615071095E969C915A
:103D60005E97892B5E968C935E974F5F5F4F11969F
:103D700048305105F9F62F5F3F4F2830310579F66D
:103D800010928A0510928B0510928C05A6EAB5E078
:103D900020E003E016E03D91822F602F0E94CD3697
:103DA000E92F90E00196189FA001199F500D112452
:103DB00048575A4FE40FF52FF11D32832F5F2830FB
:103DC00051F71FCF0D2C01C0880F0A94EAF7D39446
:103DD000C5CF1830B9F5FE013196DF011D921A9555
:103DE000E9F785EE92E07F019E01275F3F4FDF01FB
:103DF000FC014191CF014D93A217B307C9F710926F
:103E00008A0510928B0510928C0520E003E016E0E5
:103E1000D7013D917D01822F602F0E94CD36A92FC1
:103E200090E00196189FA001199F500D112448574A
:103E30005A4FA40FB52FB11D12963C932F5F283017
:103E400039F7DFCE193019F58BE00E94641664EF64
:103E500071E080E090E00E94BF098AE00E94641651
:103E600064EF71E080E090E00E94BF098BE00E9467
:103E7000641664EF71E080E090E00E94BF098AE080
:103E80000E94641664EF71E080E090E0D5C91A30BA
:103E900009F099C910928A0510928B0510928C0531
:103EA000B8E00B9F9001112450E040E0215D3A4FB3
:103EB00003E016E0842FF901E40FF51FE491602F71
:103EC0000E94CD36A92F90E00196189FB001199F4E
:103ED000700D112468577A4FA60FB72FB11D129697
:103EE000EC934F5F5F4F4830510521F78ACE143075
:103EF00009F069C96091E502662359F0693008F05C
:103F000068E06093550580914B0590E00E94E017B2
:103F10005AC961E0F6CF87E00E9401127C0161E09E
:103F2000812F0E94EC08E114F10419F460E0812F64
:103F300079CA61E0812F0E94BE08B701FF0C880B8F
:103F4000990B0E94BF09F2CF87E00E9401125C0129
:103F5000809119038823C1F0143011F01A30A1F4B4
:103F600010921903109218038CE295E00E94E81158
:103F700069E771E08AEA93E00E94551461E871E014
:103F80008AEA93E00E94511561E0812F0E94EC08BB
:103F9000A114B10489F089E00E9401126C01990F0B
:103FA000EE08FF08A7019601B501812F0E94400B82
:103FB000C701B6010E94BF09812FF8C861E0812FB7
:103FC0000E94EC088091F801811122C0E9EFF1E034
:103FD00081E192E03BE027E53483258333968E1719
:103FE0009F07D1F78EE38093FA011092F7011092A8
:103FF000F601109270001092B00082E08093B10040
:104000001092B20081E087BB809370008093F8012A
:10401000809156058823B1F061E0812F0E94EC0861
:10402000E09156058E2F90E0FC01EE0FFF1FE80F88
:10403000F91FE750FE4F812F8F711081107E182BD2
:1040400010621083E09156058FEF8E0F883068F470
:104050008E2F90E0FC01EE0FFF1FE80FF91FE750D5
:10406000FE4F85E0818383E3828364EF71E080E02B
:1040700090E00E94BF09E09156058E2F90E0FC0170
:10408000EE0FFF1FE80FF91FE750FE4F80818F7D75
:10409000808399C861E0812F0E94EC086091E5025D
:1040A00046CF61E0812F0E94EC086091E50270E04C
:1040B000812F0E94280987C887E00E9401125C01B5
:1040C00089E00E9401126C01990FEE08FF08A70118
:1040D0009601B501812F64C888EE93E0189FB00166
:1040E000199F700D11242CCB1F920F920FB60F92B7
:1040F00011242F933F938F939F93AF93BF938091FE
:104100002C0390912D03A0912E03B0912F03309199
:104110002B0323E0230F2D3758F50196A11DB11D68
:1041200020932B0380932C0390932D03A0932E03B5
:10413000B0932F038091300390913103A09132030B
:10414000B09133030196A11DB11D8093300390936C
:104150003103A0933203B0933303BF91AF919F918A
:104160008F913F912F910F900FBE0F901F90189538
:1041700026E8230F0296A11DB11DD2CF1F920F92E8
:104180000FB60F9211242F933F934F935F936F932A
:104190007F938F939F93AF93BF93EF93FF93809100
:1041A000AB029091AC02A091AD02B091AE02892B0E
:1041B0008A2B8B2BD1F19091AA02E091A802F09169
:1041C000A9028081892780838091AB029091AC0203
:1041D000A091AD02B091AE02181619061A061B0680
:1041E0009CF48091AB029091AC02A091AD02B09191
:1041F000AE020197A109B1098093AB029093AC0282
:10420000A093AD02B093AE02FF91EF91BF91AF9139
:104210009F918F917F916F915F914F913F912F91DE
:104220000F900FBE0F901F901895809100010E9473
:10423000140BEACF1F920F920FB60F9211242F93F7
:104240003F934F935F936F937F938F939F93AF931E
:10425000BF93EF93FF938AEA93E00E94AB0EFF9126
:10426000EF91BF91AF919F918F917F916F915F91EE
:104270004F913F912F910F900FBE0F901F90189567
:104280001F920F920FB60F9211242F938F939F932B
:10429000EF93FF93E091BA03F091BB038081E0912B
:1042A000C003F091C10382FD1BC090818091C303C4
:1042B0008F5F8F732091C403821741F0E091C30395
:1042C000F0E0E655FC4F958F8093C303FF91EF918B
:1042D0009F918F912F910F900FBE0F901F90189567
:1042E0008081F4CF1F920F920FB60F9211242F935B
:1042F0003F934F935F936F937F938F939F93AF936E
:10430000BF93EF93FF938091B900887F803609F4C3
:104310004AC0F0F5883209F4A7C018F5803109F4D5
:104320009BC0B8F4882309F4F9C0883009F494C01C
:10433000FF91EF91BF91AF919F918F917F916F917D
:104340005F914F913F912F910F900FBE0F901F9053
:104350001895883109F488C0803251F780937A0328
:1043600014C0803409F49DC040F48033B9F388331D
:10437000F9F680937A0385ECB0C0803509F485C0E6
:10438000883509F496C0883499F60E943417D0CF46
:10439000883909F48CC038F5883729F050F488360C
:1043A00011F0803729F683E080937C0310929D0200
:1043B00057C0883809F47BC0803919F0803809F07B
:1043C000B7CF80919D02803208F071C0E0919D02CC
:1043D00081E08E0F80939D028091BB00F0E0E35856
:1043E000FD4F80833DC0803B39F0E0F4803A09F412
:1043F00079C0883A09F09CCF84E080937C031092C6
:104400007C0210927B02E091B102F091B202099518
:1044100080917B0281110FC081E080937B0210921A
:104420005B0209C0803C09F4A6CF883C09F4A3CF05
:10443000883B09F07DCFE0917C0281E08E0F809374
:104440007C02F0E0E55AFD4F80818093BB009091A3
:104450007C0280917B0229C0809157038093BB002E
:1044600085EC8093BC0064CF9091790380917803B0
:10447000981758F5E091790381E08E0F80937903C6
:10448000F0E0E85AFC4F8081E9CFE091790381E0C8
:104490008E0F809379038091BB00F0E0E85AFC4FC7
:1044A000808390917903809178039817C8F285E80A
:1044B000D8CFE091790381E08E0F809379038091CA
:1044C000BB00F0E0E85AFC4F808380917B038111B0
:1044D0005CCF81E08093560384EA8093BC00109205
:1044E0007C0326CF85EC8093BC0010927C038091E6
:1044F0009D02803230F4E0919D02F0E0E358FD4FE0
:10450000108260919D0270E0E091AF02F091B002E4
:104510008DE792E0099510929D020ACF10927A03DE
:1045200034CF1F920F920FB60F9211242F933F9307
:104530004F935F936F937F938F939F93AF93BF93AB
:10454000EF93FF93E091B502F091B602309749F0F6
:10455000A685B7858585968D91FF14C09C9189238A
:10456000A1F4FF91EF91BF91AF919F918F917F91B6
:104570006F915F914F913F912F910F900FBE0F90D0
:104580001F9018959C91892361F7A389B4899C9108
:104590008589809589238C93868997890197F1F77E
:1045A000608D718DA685B785558538E020E0CB01FB
:1045B0000197F1F7822F90E095958795282F4C91E0
:1045C000452309F02068315091F7868D81FD2095B3
:1045D0008091B40290E001968F7399273091B302D5
:1045E000381799F0A091B402B0E0A65EBD4F2C93AD
:1045F0008093B402828D938D0197F1F7A389B489DA
:104600008C919589892B8C93ACCF868D8160868F18
:10461000F1CF1F920F920FB60F9211242F933F9359
:104620004F935F936F937F938F939F93AF93BF93BA
:10463000EF93FF938091F6018F5F8093F601E091F5
:10464000F7012091F6018E2F90E0FC01EE0FFF1F85
:10465000E80FF91FE750FE4F8181E091F7018213C7
:104660001DC08E2F90E0FC01EE0FFF1FE80FF91F19
:10467000E750FE4F82818093B200FF91EF91BF918E
:10468000AF919F918F917F916F915F914F913F91EA
:104690002F910F900FBE0F901F9018952091F6014B
:1046A0008E2F90E0FC01EE0FFF1FE80FF91FE7507F
:1046B000FE4F8181821708F7E091F7018E2F90E07D
:1046C000FC01EE0FFF1FE80FF91FE750FE4F80813E
:1046D00085FF10C0E091F7018E2F90E0FC01EE0FF6
:1046E000FF1FE80FF91FE750FE4F808160E08F71D8
:1046F0000E94BE088091F7018F5F8093F7011092AE
:10470000F6011092B2008091F701882319F180918F
:10471000F7018930F8F4E091F7018E2F90E0FC0169
:10472000EE0FFF1FE80FF91FE750FE4F808185FF56
:10473000A4CFE091F7018E2F90E0FC01EE0FFF1F58
:10474000E80FF91FE750FE4F808161E08F710E94F2
:10475000BE0893CF8091F701893008F48ECF109274
:10476000F7018BCF1F920F920FB60F9211242F9348
:104770003F934F935F936F937F938F939F93AF93E9
:10478000BF93EF93FF93809154040E94950820916A
:104790005804309159042F5F3F4F309359042093B0
:1047A000580490915704953618F096E0909353046E
:1047B00090915304943009F466C0B8F49230F1F04B
:1047C000933009F444C090915604992309F46BC0C6
:1047D00081117AC080915504882309F463C08091C7
:1047E000550461E00E94BE085EC0953009F457C0D0
:1047F000963049F791E0909324054FC08111E3CFA3
:1048000020915804309159042436310528F410922F
:10481000590410925804D7CF1092240510925704CF
:10482000E091570491E09E0F90935704F0E020919F
:10483000580430915904EE0FFF1FED5AFB4F30879B
:104840002783109259041092580493E019C08130C4
:1048500009F0B9CFE091570491E09E0F909357046F
:10486000F0E02091580430915904EE0FFF1FED5AEB
:10487000FB4F30872783109259041092580494E01C
:1048800090935304A0CF882359F22091580430917B
:1048900059042536310508F496CF95E0F1CF811102
:1048A00092CFB5CF2D9AFF91EF91BF91AF919F918C
:1048B0008F917F916F915F914F913F912F910F90C9
:1048C0000FBE0F901F90189580915504882321F0FA
:1048D0008091550460E086CF2D98E5CFCF92DF928E
:1048E000EF92FF920F931F93E82FF92F05C001500D
:1048F00011092109310961F1908196239417B9F3C7
:1049000005C0015011092109310911F19081962347
:104910009413F7CFC12CD12CE12CF12C0AC08FEFCE
:10492000C81AD80AE80AF80A0C151D052E053F0515
:1049300079F080818623841791F36C2D7D2D8E2D47
:104940009F2D1F910F91FF90EF90DF90CF900895D2
:1049500060E070E080E090E01F910F91FF90EF9099
:10496000DF90CF900895FC0193E59083128213822B
:10497000148285E485839683108611861286838748
:10498000948716861786108A818B928B97E1938B7A
:10499000148A158A168A178A808F80910E01909149
:1049A0000F01A0911001B0911101818F928FA38FFF
:1049B000B48F168E158E10A2178E12A211A214A2F9
:1049C00013A285E0818381E1828386E18783089554
:1049D0001F93CF93DF931092AD031092AC0388EE38
:1049E00093E0A0E0B0E08093AE039093AF03A09378
:1049F000B003B093B1032CE231E03093AB032093CA
:104A0000AA0325EC30E03093B7032093B60324ECDF
:104A100030E03093B9032093B80320EC30E03093BA
:104A2000BB032093BA0321EC30E03093BD03209305
:104A3000BC0322EC30E03093BF032093BE0326EC8E
:104A400030E03093C1032093C0031092C30310924F
:104A5000C4031092C5031092C60310924A04109228
:104A6000490480934B0490934C04A0934D04B0935D
:104A70004E048EE391E0909348048093470493E5BD
:104A800090930306109205061092060610920706F0
:104A900085E4809308069093090610920B06109205
:104AA0000C0610920D0680930E0683E08093040698
:104AB00084E080930A068EED95E00E94B3248091F5
:104AC0000E0190910F01A0911001B09111018093FE
:104AD000DA059093DB05A093DC05B093DD0580E655
:104AE0008093D3051092D9058EEA95E00E94B324F5
:104AF000E8E8F5E086EA95E033E525E430831282C4
:104B000013821482258336968E179F07B9F788E0A3
:104B1000E6EAF5E0DF01982F1D929A95E9F797E014
:104B20009093890510928A0510928B0510928C053E
:104B300080938F0589E08093950580E180939B05A4
:104B400010929E0581E18093A105809112019091C0
:104B50001301A0911401B0911501809377059093F2
:104B60007805A0937905B0937A0510927B0586E0CD
:104B7000ECE7F5E0DF01982F1D929A95E9F7E2E85E
:104B8000F5E0DF011D928A95E9F761E085E00E947A
:104B9000EC0861E086E00E94EC0860E08FE00E9493
:104BA000EC0884E090E00E94FB17182F85E090E06D
:104BB0000E94FB17C82F88E090E00E94FB17D82FB7
:104BC0001F3F39F40E94E217D0E0C0E08C2F90E044
:104BD00007C01230D9F78C2F90E0919581959109FB
:104BE000909383058093820586E090E00E94FB17F6
:104BF000C82F87E090E00E94FB1790E0C23019F4C4
:104C000091958195910990938505809384058D2FC9
:104C100090E0909387058093860587E080937505E3
:104C200088E08093760560E087E00E94EC0860E011
:104C3000809176050E94EC0861E08DE00E94EC080E
:104C40008DE18093570580EE9EE2A5E6B2E4809365
:104C5000710590937205A0937305B09374058091CC
:104C60002505883008F0CFC08F5F8093250580939D
:104C7000560589E080934B058AE080934C058BE0D4
:104C800080934D058CE080934E058DE080934F0519
:104C90008EE0809350058FE080935105109253056C
:104CA00010925205109254051092550582E080939F
:104CB00054041092560489E090E00E94FB178F3F45
:104CC00009F4A4C08093550510922F0510922E056B
:104CD00088EE93E0A0E0B0E080933005909331053A
:104CE000A0933205B093330580E591E090932D05B4
:104CF00080932C05109243051092420510924505B1
:104D000010924405109247051092460510924905ED
:104D10001092480560914A056E7F6D7F60934A0549
:104D20006695617081E068278AE00E94BE0861E0B4
:104D30008AE00E94EC08E4E3FEE0E491E0933C05A5
:104D4000E0E2FEE0E491F0E0EE0FFF1FE45FF14FE0
:104D50008591949190933E0580933D0560E084E0B9
:104D60000E94EC0880914A0581FD04C061E084E066
:104D70000E94BE0884E080933805EEE2FEE0E491F4
:104D8000E0933905EAE1FEE0E491F0E0EE0FFF1F69
:104D9000EE5FF14F8591949190933B0580933A0596
:104DA00010922705109226051092290510922805C9
:104DB00010922B0510922A0561E070E090E080E0EF
:104DC0000E941A3A009759F190932705809326057F
:104DD000109229051092280520912A0530912B0563
:104DE000232B11F4FC01108210922B0510922A053E
:104DF00060E671E08091260590912705DF91CF91C3
:104E00001F910C94E03A1092560533CF81E08093C5
:104E1000550561E089E090E00E94E01755CF809150
:104E2000260590912705009711F00E949139109264
:104E300027051092260510922B0510922A05109234
:104E4000290510922805DF91CF911F910895CF93E6
:104E5000DF9300D000D0CDB7DEB7789484B5826000
:104E600084BD84B5816084BD85B5826085BD85B50E
:104E7000816085BD80916E00816080936E0010928C
:104E80008100809181008260809381008091810007
:104E90008160809381008091800081608093800098
:104EA0008091B10084608093B1008091B0008160F6
:104EB0008093B00080917A00846080937A00809122
:104EC0007A00826080937A0080917A00816080937A
:104ED0007A0080917A00806880937A001092C100F5
:104EE000E091BA03F091BB0322E02083E091B60386
:104EF000F091B7031082E091B803F091B90380E11B
:104F000080831092C203E091BE03F091BF0386E05C
:104F10008083E091BC03F091BD0380818061808338
:104F2000E091BC03F091BD03808188608083E091B3
:104F3000BC03F091BD03808180688083E091BC0355
:104F4000F091BD0380818F7D808361E083E00E94CA
:104F5000EC0860E08EE00E94EC0860E080E10E94D6
:104F6000EC0822E330E040E050E066E071E083E0EE
:104F70000E94400B62E370E080E090E00E94BF0975
:104F800083E00E94140B1092550310925403109268
:104F900083031092A5030E94610F82E19BE090932E
:104FA000B2028093B10283E19BE09093B0028093C0
:104FB000AF021092640532E03093590584E297E91C
:104FC000AFE7BCE38093600590936105A093620511
:104FD000B0936305809157050E9435086DE087E422
:104FE00094E00E94D01080E00E94A00F61E08091C8
:104FF00057050E945B1290915403809155039813BA
:105000000E945208809157050E9435088BE290E07B
:105010000E94FF1080E490E00E94FF100E94901018
:105020006AE070E080E090E00E94BF09809157053F
:105030000E9435086AE287E494E00E94D0100E9442
:10504000901061E0809157050E945B12909154038B
:1050500080915503981709F4D8C20E945208898399
:10506000809157050E9435086AE287E494E00E9427
:10507000D010E9818E2F90E08E7F0E94FF100E9459
:105080009010809157050E94350881E190E00E94C0
:10509000FF1080EC90E00E94FF100E949010809121
:1050A00057050E9435088EE090E00E94FF10809125
:1050B0005905843009F4ABC2883009F0ABC282E0F4
:1050C00090E00E94FF100E949010809157050E946E
:1050D00035086AE287E494E00E94D0100E949010A4
:1050E00061E0809157050E945B129091540380917A
:1050F0005503981709F494C20E945208898380913D
:1051000057050E9435086AE287E494E00E94D010B7
:1051100080916405882309F485C290E080E0F981DC
:10512000F1628F2B0E94FF100E9490108091570512
:105130000E9435088BE290E00E94FF1089E090E029
:105140000E94FF100E949010F8941092800089E055
:105150008093810080E293E090938900809388009F
:10516000109285001092840082E080936F00789402
:1051700080935304109257048091540460E00E947D
:10518000EC0864E971E08AEA93E00E94511564E654
:1051900070E080E090E00E94BF0964EA71E08AEA72
:1051A00093E00E94511564E670E080E090E00E9478
:1051B000BF091092470510924605109245051092BE
:1051C000440510924305109242058DE991E09093B9
:1051D00049058093480590913805963108F047C0FD
:1051E0002DEB30E030934305209342052BE931E06D
:1051F00030934505209344052CE231E03093470578
:10520000209346052091680084E0983048F031E012
:105210009E3008F430E081E001C0880F3A95EAF74B
:10522000822B809368002DE630E0983050F02BE61A
:1052300030E09E3030F02CE630E0963110F030E077
:1052400020E03093400520933F05292F30E098302F
:1052500008F0EBC181E001C0880F9A95EAF78093CE
:10526000410580914805909149050197F1F780919A
:10527000460590914705892B21F18091B5029091C7
:10528000B60225E08C329207E1F0009711F00E94FF
:10529000E81180914A058E7F80934A051092B402EE
:1052A0001092B3028CE295E09093B6028093B5021F
:1052B000E0913F05F0914005808190914105892B57
:1052C000808381E08093190364EB71E08CE295E0C8
:1052D0000E94511569E771E08AEA93E00E94551433
:1052E00064ED71E08AEA93E00E9451152224239430
:1052F000312C8AE594E090932603809325038091D6
:105300005704E82FF0E0FA83E983F0932803E09351
:1053100027038091240590E090932A03809329032A
:1053200080915304853009F03AC580915C049091D6
:105330005D040A97099708F0AFC4E0915704F0E0C4
:10534000EE0FFF1FEA5AFB4F808191810797079765
:1053500008F0A2C4E0915704F0E0EE0FFF1FE85AF6
:10536000FB4F808191810A97099708F095C420919D
:10537000570430E0C901069797FD019695958795EA
:105380008230910509F47EC18330910509F4A3C2EE
:10539000C12CD12C7601019709F075C0609164048D
:1053A0007091650490E080E00E94373520E030E0A5
:1053B00040EE50E40E94C33720E030E0A9010E9493
:1053C0006B38609164047091650490E087FD3AC188
:1053D00080E00E94373520E030E040EE50E40E944B
:1053E000C33720E030E040E05FE30E9457370E947F
:1053F0003538C12CD12C76011616170664F490E0CE
:1054000080E0CC0CDD1CEE1CFF1C6894C0F80196FB
:1054100068177907B1F7609162047091630490E0B6
:1054200080E00E94373520E030E040E05EE30E94FB
:10543000983520E030E0A9010E946B386091620449
:105440007091630490E087FD0DC180E00E943735C4
:1054500020E030E040E05EE30E94983520E030E05C
:1054600040E05FE30E9457370E9435381616170652
:1054700054F490E080E0CC0CDD1CEE1CFF1C019687
:1054800068177907C1F7609160047091610490E03A
:1054900080E00E94373520E030E040E05EE30E948B
:1054A000983520E030E0A9010E946B3860916004DB
:1054B0007091610490E087FDC9C380E00E94373598
:1054C00020E030E040E05EE30E94983520E030E0EC
:1054D00040E05FE30E9457370E94353816161706E2
:1054E00064F490E080E0CC0CDD1CEE1CFF1C6894A2
:1054F000C0F8019668177907B1F760915E04709162
:105500005F0490E080E00E94373520E030E040E426
:1055100051E40E94563720E030E040E05EE30E9414
:10552000983520E030E0A9010E946B3860915E045C
:1055300070915F0490E087FD99C380E00E94373549
:1055400020E030E040E451E40E94563720E030E0B3
:1055500040E05EE30E94983520E030E040E05FE309
:105560000E9457370E9435381616170654F490E0FB
:1055700080E0CC0CDD1CEE1CFF1C0196681779073F
:10558000C1F72AE030E03093240320932303C09234
:105590001F03D0922003E0922103F092220381E1C5
:1055A00090E090931C0380931B0380911F039091C4
:1055B0002003A0912103B0912203AC01BD0106E0BC
:1055C00076956795579547950A95D1F74770552772
:1055D0004F5F5F4F409354058F7399278833910530
:1055E0000CF0C2C4823391055CF4873291050CF053
:1055F000DAC38532910524F48332910509F0D7C3CB
:105600009093530580935205D2C3198229CD81E02E
:1056100090E057CD60E087E494E00E94D01053CD35
:1056200019826DCD82E090E07ACD9E3040F4285012
:10563000310981E001C0880F2A95EAF710CE2E507B
:105640003109F7CF80E00E94373520E030E040EEAE
:1056500050E40E94C33720E030E040E05FE30E9466
:105660005637C5CE80E00E94373520E030E040E07C
:105670005EE30E94983520E030E040E05FE30E9466
:105680005637F2CE609168047091690490E080E032
:105690000E94373520E030E040EE50E40E94C337EE
:1056A00020E030E0A9010E946B386091680470919D
:1056B000690490E087FDCFC080E00E94373520E08C
:1056C00030E040EE50E40E94C33720E030E040E09C
:1056D0005FE30E9457370E943538C12CD12C7601E8
:1056E0001616170664F490E080E0CC0CDD1CEE1C6E
:1056F000FF1C6894C0F8019668177907B1F76091AC
:1057000066047091670490E080E00E94373520E0E5
:1057100030E040E05EE30E94983520E030E0A901EF
:105720000E946B38609166047091670490E087FD79
:10573000A2C080E00E94373520E030E040E05EE328
:105740000E94983520E030E040E05FE30E94573748
:105750000E9435381616170654F490E080E0CC0C01
:10576000DD1CEE1CFF1C019668177907C1F76091DC
:1057700064047091650490E080E00E94373520E079
:1057800030E040E05EE30E94983520E030E0A9017F
:105790000E946B38609164047091650490E087FD0D
:1057A0007AC080E00E94373520E030E040E05EE3E0
:1057B0000E94983520E030E040E05FE30E945737D8
:1057C0000E9435381616170664F490E080E0CC0C81
:1057D000DD1CEE1CFF1C6894C0F801966817790761
:1057E000B1F7609162047091630490E080E00E94E0
:1057F000373520E030E040E05EE30E94983520E05D
:1058000030E0A9010E946B386091620470916304DA
:1058100090E087FD50C080E00E94373520E030E006
:1058200040E05EE30E94983520E030E040E05FE336
:105830000E9457370E943538161617060CF023CEF3
:1058400090E080E0CC0CDD1CEE1CFF1C019668177C
:105850007907C1F718CE80E00E94373520E030E0AC
:1058600040EE50E40E94C33720E030E040E05FE3C8
:105870000E94563730CF80E00E94373520E030E07C
:1058800040E05EE30E94983520E030E040E05FE3D6
:105890000E9456375DCF80E00E94373520E030E02F
:1058A00040E05EE30E94983520E030E040E05FE3B6
:1058B0000E94563785CF80E00E94373520E030E0E7
:1058C00040E05EE30E94983520E030E040E05FE396
:1058D0000E945637AFCF60916C0470916D0490E0D8
:1058E00080E00E94373520E030E040EE50E40E9436
:1058F000C33720E030E0A9010E946B3860916C044E
:1059000070916D0490E087FD41C180E00E943735C1
:1059100020E030E040EE50E40E94C33720E030E069
:1059200040E05FE30E9457370E943538C12CD12CEC
:1059300076011616170664F490E080E0CC0CDD1CAE
:10594000EE1CFF1C6894C0F8019668177907B1F740
:1059500060916A0470916B0490E080E00E9437359A
:1059600020E030E040E05EE30E94983520E030E047
:10597000A9010E946B3860916A0470916B0490E0F9
:1059800087FD14C180E00E94373520E030E040E020
:105990005EE30E94983520E030E040E05FE30E9443
:1059A00057370E9435381616170654F490E080E0F9
:1059B000CC0CDD1CEE1CFF1C019668177907C1F7A3
:1059C000609168047091690490E080E00E9437352E
:1059D00020E030E040E05EE30E94983520E030E0D7
:1059E000A9010E946B38609168047091690490E08D
:1059F00087FDECC080E00E94373520E030E040E0D9
:105A00005EE30E94983520E030E040E05FE30E94D2
:105A100057370E9435381616170664F490E080E078
:105A2000CC0CDD1CEE1CFF1C6894C0F801966817B6
:105A30007907B1F7609166047091670490E080E0A7
:105A40000E94373520E030E040E05EE30E94983568
:105A500020E030E0A9010E946B38609166047091EB
:105A6000670490E087FDC2C080E00E94373520E0E7
:105A700030E040E05EE30E94983520E030E040E016
:105A80005FE30E9457370E9435381616170654F404
:105A900090E080E0CC0CDD1CEE1CFF1C019668172A
:105AA0007907C1F7609164047091650490E080E02B
:105AB0000E94373520E030E040E05EE30E949835F8
:105AC00020E030E0A9010E946B386091640470917D
:105AD000650490E087FD9AC080E00E94373520E0A1
